:020000040800F2
:10000000FCFF00206D16000065160000651600005C
:1000100065160000651600006516000065160000F4
:1000200065160000651600006516000065160000E4
:1000300065160000651600006516000065160000D4
:1000400065160000651600006516000065160000C4
:1000500065160000651600006516000065160000B4
:1000600065160000651600006516000065160000A4
:100070006516000065160000651600006516000094
:100080006516000065160000651600006516000084
:100090006516000065160000651600006516000074
:1000A0006516000065160000651600006516000064
:1000B0006516000065160000651600006516000054
:1000C0006516000065160000651600006516000044
:1000D0006516000065160000651600006516000034
:1000E0006516000065160000651600006516000024
:1000F0006516000065160000651600006516000014
:100100006516000065160000651600006516000003
:1001100065160000651600006516000065160000F3
:1001200065160000651600006516000065160000E3
:1001300065160000651600006516000065160000D3
:1001400065160000651600006516000065160000C3
:1001500001480068704700BF1801002083B0CDF847
:1001600000E000F0FF031A09104603F00F021346E7
:1001700014E0194A02921FE0184A02921CE0184A41
:10018000029219E0174A029216E0174A029213E00F
:10019000164A029210E0164A02920DE00028E8D0BA
:1001A0000128E9D00228EAD00328EBD00428ECD0BB
:1001B0000528EDD00628EED0012212B29A40ADF803
:1001C000042002980A46BDF8041000F035F9DDF865
:1001D00000E003B0704700BF00080140000C014080
:1001E000001001400014014000180140001C0140B3
:1001F0000020014081B0194900EA010108460022AF
:100200000EE0042022E0082020E010201EE0202044
:100210001CE040201AE0802018E040F2001015E0B9
:100220000F498842EDD00F498842ECD00E498842F0
:10023000EBD00E498842EAD00D498842E9D00D49F9
:100240008842E8D00C498842E7D010460B4909683B
:1002500041EA000209490A6001B0704700FCFFFF53
:1002600000080140000C0140001001400014014052
:1002700000180140001C01400020014018100240FD
:1002800081B0CDF800E0012252B23E490A6000F28E
:1002900068010B686FF0006103EA0102144603F085
:1002A0000061C90E0B4602F00041B1F1004F02D1CE
:1002B00035490A6801E035490A6804F47021090CDF
:1002C0000E464FF6FF7104EA01010D4604F4401199
:1002D000B1F5401F0DD16FF0706102EA01010E46C9
:1002E0002A490A686FF070610A4028490A6032465C
:1002F00016E004F48011B1F5801F09D14FF003011D
:10030000B140C94302EA010141F070610A4607E0C9
:10031000610D090105FA01F1C9430A4042F070621A
:100320002BB1610D090105FA01F10A43FFE704F061
:100330000041B1F1004F02D113490A6001E01349B5
:100340000A6040F2000A81464FEA8A0109EB010186
:100350000968B1F1FF3F10D009F134014FEA8A0377
:10036000C91809680A4609EB0301096808461146DD
:10037000FFF7F4FE0AF1010AE6E7DDF800E001B05C
:10038000704700BF000342421C00014004000140CE
:1003900082B0CDF800E0034619460191FFF7D8FE80
:1003A00040F2E83100FB01F201990A601F49097827
:1003B000C1F30311C8B21E4909180878C0B21A1D4A
:1003C0001968C140116019490988C1F3022188B236
:1003D000174909180878C0B203F20802191D096804
:1003E000C140116011490988C1F3C22188B2104986
:1003F00009180878C0B203F20C02191D0968C1403F
:1004000011600A490988C1F3813188B20949091884
:100410000978C8B203F2100203F20C010968B1FBBB
:10042000F0F11160DDF800E002B070470410024006
:10043000E01A0000F01A000081B0CDF800E08CB2A4
:100440001546774B00EA03031E461846FFF7D2FE17
:10045000B4F1FF0F0CD1734B9D4203D14FF03333F6
:100460003360D9E0422D03D14FF044333360D3E001
:100470004FF6FF739C4214D16A4B9D4207D14FF057
:1004800033333360341D4FF033332360C4E0422DE7
:1004900007D14FF044333360341D4FF044332360B1
:1004A000BAE00021002005F001030BB100211DE09E
:1004B00005F0020333B105F4C0730BB1082100E06D
:1004C000042113E005F0040333B105F020030BB160
:1004D000042100E0002109E005F0080333B105F034
:1004E00020030BB10C2100E00821FFE74E4B05EA89
:1004F00003030BB1032009E005F400730BB10220E4
:1005000004E005F480630BB10120FFE705F00C0364
:100510000BB10143FFE704F0FF039BB2002B3BD07C
:10052000376800201FFA84F832462E4608282CD25D
:100530004FF0010303FA00F408EA0403A34222D1B6
:1005400085004FF00F03AB40DB4307EA030401FAD9
:1005500005F344EA03031D4606F48173B3F5817F76
:1005600005D102F214044FF001038340236006F02A
:100570008203822B05D102F210044FF00103834065
:1005800023602F46FFE7401CD0E717601FFA88F072
:100590000F463146164602E00F462946A0B2B0F19A
:1005A000FF0F39D9331DD3F800800022082A30D23A
:1005B00002F208044FF0010303FA04F400EA040312
:1005C000A34224D195004FF00F03AB40DB4308EA70
:1005D000030807FA05F348EA030801F48173B3F549
:1005E000817F07D106F2140502F208044FF00103DF
:1005F000A3402B6001F08203822B07D106F2100585
:1006000002F208044FF00103A3402B60FFE7521CE5
:10061000CCE7331DC3F80080DDF800E001B070477F
:1006200000FCFFFF140008000008080089B0CDF8A6
:1006300000E0834698B28C46BDF824100A9E04ACB4
:10064000ADF80410ADF808002046FFF7A1FEBDF894
:100650000800BDF80410644CA34512D101256DB209
:10066000624C2560624D634C2560634D634C256090
:10067000634D644C2560644D644C2560079C039475
:1006800056E0634CA34512D101256DB2614C256043
:10069000614D584C2560614D584C2560604D594C5A
:1006A0002560604D594C2560069C039440E05E4CEB
:1006B000A34512D101256DB25C4C25605C4D4D4CBB
:1006C00025605C4D4D4C25605B4D4E4C25605B4D6F
:1006D0004E4C2560069C03942AE0594CA34512D148
:1006E00001256DB2574C2560574D424C2560574D42
:1006F000424C2560564D434C2560564D434C256079
:10070000069C039414E0544CA34511D101256DB20D
:10071000524C2560524D374C2560524D374C256068
:10072000514D384C2560514D384C2560069C039442
:10073000ADF80410ADF808003046FFF7A1FDBDF894
:100740000800BDF804100BF1100500242C600BF11B
:1007500010052C680C432C600BF10C0500242C6058
:1007600018B140F4806080B2FFE70BF10C052C68F3
:1007700004432C600BF10C060125346865F34D34FD
:1007800034600BF10C060125346865F3C304346052
:100790000BF10C060125346865F3820434600BF11B
:1007A000140500242C60039D192465434FEA8C0432
:1007B000B5FBF4F76424B7FBF4F42601350964248F
:1007C0006C433C1B240104F232056424B5FBF4F4B1
:1007D00004F00F0446EA04040BF10805A4B22C60EF
:1007E000DDF800E009B070470038014038034242AC
:1007F000010900001C010020FFFFFFFF2001002075
:10080000FFFFFFFF24010020FFFFFFFF2801002062
:1008100000440040C4034242E5080000FFFFFFFF20
:10082000FFFFFFFFFFFFFFFF00480040C8034242F9
:1008300091080000FFFFFFFFFFFFFFFFFFFFFFFF2B
:10084000004C0040CC034242AD080000FFFFFFFF18
:10085000FFFFFFFFFFFFFFFF00500040D0034242B9
:10086000C9080000FFFFFFFFFFFFFFFFFFFFFFFFC3
:1008700081B0ADF800100146BDF800000B68C3F36D
:10088000C01202B9FAE70A1D106001B07047FFFFFD
:1008900081B0CDF800E081B20348FFF7E9FFDDF851
:1008A00000E001B0704700BF0048004081B0CDF8C3
:1008B00000E081B20348FFF7DBFFDDF800E001B0A4
:1008C000704700BF004C004081B0CDF800E081B21D
:1008D0000348FFF7CDFFDDF800E001B0704700BF2F
:1008E0000050004081B0CDF800E081B20348FFF72E
:1008F000BFFFDDF800E001B0704700BF00440040DA
:1009000081B0CDF800E081B20348FFF7B1FFDDF818
:1009100000E001B0704700BF0038014081B0CDF861
:1009200000E0019D2C4610B408B493B28AB201468F
:100930000348FFF77BFE02B0DDF800E001B070472E
:100940000044004081B0CDF800E0019D2C4610B479
:1009500008B493B28AB201460348FFF767FE02B0BB
:10096000DDF800E001B070470038014081B0CDF8FB
:1009700000E04FF0420289B2FFF75EFDDDF800E0D3
:1009800001B0704781B0CDF800E0044A89B2FFF7AA
:1009900053FDDDF800E001B0704700BF140008000F
:1009A00081B0CDF800E00C4601466FF0FF0201EA8D
:1009B0000202104618E001235BB2254A136022E0D0
:1009C00001235BB2234A13601DE001235BB2224A7C
:1009D000136018E001235BB2204A136013E0012387
:1009E0005BB21F4A13600EE01E4A9042E3D0B0F1A2
:1009F000804FE5D01C4A9042E7D01C4A9042E9D093
:100A00001B4A9042EBD0FFF7A3FB0B686FF010027C
:100A100003EA02020A6040F2E8324243B2FBF4F316
:100A200018464FF6FF72B3FBF2F2144601F22803A8
:100A300092B21A60621CB0FBF2F2104601F22C0373
:100A400092B21A6080B2DDF800E001B0704700BFDA
:100A50002C034242800342428403424288034242C2
:100A60008C034242002C014000040040000800407A
:100A7000000C004081B0CDF800E083465FFA81FCB5
:100A80001046FFF7FDFB0BF1200318684FEA8C04BA
:100A900024B24FF00103A34018430BF12003186068
:100AA0000BF14404236843F4004323600BF1180066
:100AB000BCF1010F01D9001DFFE74FEA5C03DBB277
:100AC0005B001BB263450AD004686FF4D85304EA94
:100AD00003030360036843F4C043036009E0046850
:100AE0006FF01B0304EA03030360036843F0600331
:100AF0000360DBF8003043F00103CBF80030DDF891
:100B000000E001B07047FFFF81B0D5B200F22004D1
:100B10002268012D08D19C0024B2651C2DB24FF033
:100B20000104AC40224308E09C0024B2651C2DB2B5
:100B30004FF00104AC40E443224000F22004226064
:100B400000F234059C002C19216001B07047FFFFB2
:100B500081B0CDF800E0019D2C4610B408B493B2EA
:100B60008AB201460348FFF761FD02B0DDF800E0FC
:100B700001B070470048004001490860704700BF5D
:100B8000B881224201490860704700BF8C012242AF
:100B900081B0CDF800E00A46C1B20348FFF76AFF12
:100BA000DDF800E001B07047000C0040014908602A
:100BB000704700BFA801224201490860704700BF8A
:100BC0009401214201490860704700BFA48122427C
:100BD00001490860704700BFA881224201490860AE
:100BE000704700BFA081224201490860704700BFE2
:100BF0009C81214201490860704700BF98812142D1
:100C000001490860704700BFAC8122420149086079
:100C1000704700BFB081224200F230011C310A68E7
:100C200009490A60026809490A6000F208010A6875
:100C300007490A60011D0A6806490A6000F21801A6
:100C40000A6805490A607047080100200401002075
:100C50000C0100201001002014010020014908604F
:100C6000704700BF9481224201490860704700BF6D
:100C70009881224201490860704700BFB0012242BA
:100C800081B0CDF800E0D3B2CAB281B20348FFF719
:100C90003BFFDDF800E001B0704700BF000C0040F2
:100CA00001490860704700BF9881214201490860EE
:100CB000704700BF9C81214201490860704700BF16
:100CC000AC01224281B0CDF800E001460348FFF7B5
:100CD00067FEDDF800E001B0704700BF000C004087
:100CE00081B0CDF800E00178CCB2A0B2034C24680A
:100CF000A0470020DDF800E001B0704700010020AF
:100D000081B0CDF800E0A9E0012905D140F2100141
:100D10006548FFF72BFE04E040F210016248FFF740
:100D200031FEBBE0012905D140F204015F48FFF725
:100D30001DFE04E040F204015C48FFF723FEADE035
:100D4000012905D142F200015948FFF70FFE04E0E6
:100D500042F200015648FFF715FE9FE0012905D138
:100D600040F200415148FFF701FE04E040F200412B
:100D70004E48FFF707FE91E0012905D140F600013A
:100D80004A48FFF7F3FD04E040F600014748FFF74B
:100D9000F9FD83E0012905D141F200014348FFF745
:100DA000E5FD04E041F200014048FFF7EBFD75E08E
:100DB000012905D140F201013B48FFF7D7FD04E0CE
:100DC00040F201013848FFF7DDFD67E0012905D158
:100DD00040F200413648FFF7C9FD04E040F200410F
:100DE0003348FFF7CFFD59E0012905D140F200213A
:100DF0002F48FFF7BBFD04E040F200212C48FFF72D
:100E0000C1FD4BE0012905D140F200112848FFF750
:100E1000ADFD04E040F200112548FFF7B3FD3DE0D1
:100E2000012905D140F240012248FFF79FFD04E06F
:100E300040F240011F48FFF7A5FD2FE0012905D131
:100E400040F280011B48FFF791FD04E040F2800171
:100E50001848FFF797FD21E0012020E000283FF42B
:100E600053AF01283FF45EAF02283FF469AF032877
:100E70003FF474AF04283FF47FAF05283FF48AAFF6
:100E800006283FF495AF0728A0D00828ACD0092841
:100E9000B8D00A28C4D00B28D0D0DDE70020DDF878
:100EA00000E001B0704700BF0008014000100140A1
:100EB00000140140000C014081B0CDF800E0094968
:100EC00002B440F2000340F2000240F20001FFF7DA
:100ED0003FFE01B0044A05490A600020DDF800E049
:100EE00001B07047D01800009108000000010020F8
:100EF00081B0CDF800E0094902B440F2000340F2AD
:100F0000000240F20001FFF709FD01B0044A054963
:100F10000A600020DDF800E001B07047141A0000FC
:100F2000E50800000001002081B0CDF800E009498B
:100F300002B440F2000340F2000240F20001FFF769
:100F400001FD01B0044A05490A600020DDF800E017
:100F500001B070473C1900000109000000010020A9
:100F600081B0CDF800E0094902B440F2000340F23C
:100F7000000240F20001FFF7D1FC01B0044A05492C
:100F80000A600020DDF800E001B07047141A00008C
:100F9000E50800000001002081B0CDF800E0A9E0E4
:100FA000012905D140F220016548FFF7DFFC04E08C
:100FB00040F220016248FFF7E5FCBBE0012905D1C2
:100FC00040F208015F48FFF7D1FC04E040F208015D
:100FD0005C48FFF7D7FCADE0012905D144F20001E0
:100FE0005948FFF7C3FC04E044F200015648FFF7FC
:100FF000C9FC9FE0012905D140F200415148FFF7AB
:10100000B5FC04E040F200414E48FFF7BBFC91E024
:10101000012905D140F600014A48FFF7A7FC04E08A
:1010200040F600014748FFF7ADFC83E0012905D1F8
:1010300041F200014348FFF799FC04E041F200014E
:101040004048FFF79FFC75E0012905D141F20001FE
:101050003D48FFF78BFC04E041F200013A48FFF7FE
:1010600091FC67E0012905D140F600013648FFF701
:101070007DFC04E040F600013348FFF783FC59E0B3
:10108000012905D140F240012F48FFF76FFC04E031
:1010900040F240012C48FFF775FC4BE0012905D1D7
:1010A00040F220012848FFF761FC04E040F22001F3
:1010B0002548FFF767FC3DE0012905D140F24001DA
:1010C0002248FFF753FC04E040F240011F48FFF7BD
:1010D00059FC2FE0012905D140F280011B48FFF7A0
:1010E00045FC04E040F280011848FFF74BFC21E08A
:1010F000012020E000283FF453AF01283FF45EAF09
:1011000002283FF469AF03283FF474AF04283FF48A
:101110007FAF05283FF48AAF06283FF495AF072834
:10112000A0D00828ACD00928B8D00A28C4D00B28F1
:10113000D0D0DDE70020DDF800E001B0704700BF4F
:10114000000801400010014000140140000C014063
:1011500001490860704700BFAC01224201490860A4
:10116000704700BFB001224201490860704700BFCC
:101170008001214201490860704700BFA801224256
:1011800001490860704700BF900121420149086091
:10119000704700BF8801224201490860704700BFC4
:1011A000B481224281B0CDF800E000220021FFF797
:1011B00067FDDDF800E001B07047FFFF81B0CDF8BA
:1011C00000E00120034C2468A047DDF800E001B0F6
:1011D000704700BF0401002081B0CDF800E0044951
:1011E0000020FFF7D5FCDDF800E001B0704700BF3C
:1011F000A819000081B0CDF800E00020034C24685D
:10120000A047DDF800E001B0704700BF04010020F6
:1012100081B0CDF800E00020054C2468A0470120F3
:10122000044C2468A047DDF800E001B0704700BF1F
:10123000100100200C01002041F6FF27C0F2B70783
:101240007F1EFDD100BF00BF00BF00BF00BF7047C1
:1012500081B0CDF800E00120054C2468A0470120B2
:10126000044C2468A047DDF800E001B0704700BFDF
:10127000100100200C01002044F67F77C0F2120715
:101280007F1EFDD100BF00BF00BF00BF00BF704781
:1012900081B0CDF800E011E00846FFF70DFE16E042
:1012A0000846FFF725FE12E00846FFF73DFE0EE078
:1012B0000846FFF755FE0AE0012008E00028EBD0C1
:1012C0000128EDD02028EFD03028F1D0F4E7DDF868
:1012D00000E001B07047FFFF81B0CDF800E0FFF7FC
:1012E0009BFC0120034C2468A047DDF800E001B01E
:1012F000704700BF0401002083B0CDF800E0024633
:1013000010460D228DF808200A228DF809201FE0D2
:10131000FFF7E6FC23E002782AB10190FFF7E0FC3A
:101320000198401CF7E71AE002782AB10190FFF714
:10133000D7FC0198401CF7E702AA1046FFF7D0FC43
:101340000DF109021046FFF7CBFC08E0062007E08C
:101350000029DDD00129DED00229E5D0F6E7002002
:10136000DDF800E003B0704781B0CDF800E05FFA2F
:1013700081F95FFA82FA0FE05FFA8AF15FFA89F089
:10138000FFF7BEFC0DE05FFA8AF15FFA89F0FFF724
:1013900003FE06E0012004E00028EDD00128F2D091
:1013A000F8E7DDF800E001B07047FFFF81B0CDF84D
:1013B00000E0FFF787FCDDF800E001B07047FFFFB9
:1013C00081B0CDF800E0002200210020FFF7CCFF23
:1013D000002201210020FFF7C7FF00220221002088
:1013E000FFF7C2FF002206210020FFF7BDFF012208
:1013F00007210020FFF7B8FF42F280512020FFF7BD
:1014000047FFFFF739FF0C480221FFF775FF0B4834
:101410000221FFF771FF0A480221FFF76DFF09481B
:101420000221FFF769FF08480221FFF765FFDDF899
:1014300000E001B0704700BF3000002046000020EF
:101440005C000020720000208800002081B0CDF8F0
:1014500000E00F48FFF740FFFFF70EFF0D480221A5
:10146000FFF74AFF0C480088FFF7A0FF0B480088F1
:10147000FFF798FEFFF7A2FEFFF7AEFEFFF7DCFED8
:1014800007480221FFF738FFDDF800E001B07047A0
:10149000801A000000000020160000201800002024
:1014A0001A00002081B01548006840F0010113487F
:1014B0000160134913480160104801681248014057
:1014C0000E4801600D4801686FF4802001400B4810
:1014D00001600C4801686FF4FE000140094801609A
:1014E000064801686FF0A0500140044801604FF0C9
:1014F00000010648016001B0704700BF00100240C3
:101500000000FFF004100240FFFFF6FE2C10024026
:1015100081B01CF8019B0BF8019BBBEB0A0FF8D1C3
:1015200001B0704781B04FF000094FF0000CBDEBE7
:101530000A0F04DCBDEB0B0F01DBD446EA464BF887
:10154000049BBBEB0A0FFAD1BCEB0A0F05DDE246A8
:10155000D9F800B00BF1040BF1E701B07047FFFFC1
:1015600081B0CDF800E031480221FFF7C5FEFFF75A
:101570006FFEFFF723FEFFF75FFE40F2F4112C48E9
:1015800001802B48018840F6B83081420ED22848AD
:101590000088FFF707FE27480121FFF7ADFEFFF7A0
:1015A0004BFE23490888FA300880EAE7FFF722FE5D
:1015B00021480221FFF7A0FEFFF73EFE1F4802214F
:1015C000FFF79AFE1E480221FFF796FEFFF720FE66
:1015D000FFF7F4FDFFF730FE40F2F41114480180EC
:1015E0001348018840F6B83081420ED21048008876
:1015F000FFF7D8FD13480121FFF77EFEFFF71CFE21
:101600000B490888FA300880EAE70F480221FFF703
:1016100073FE0E480221FFF76FFEFFF7EBFDFFF7A9
:101620000BFEDDF800E001B0704700BF9E00002017
:1016300018000020B4000020B7000020B8000020EF
:10164000CE000020E4000020E7000020E800002099
:1016500081B002490248016001B0704740190100A1
:101660001801002081B0FEE701B0704700F00EF8CD
:1016700000F080FAFFF7ECFF00F03CFAFFF7A0FE65
:10168000FFF7E4FEFFF76CFFFCE7FEE781B0CDF863
:1016900000E0464A464B474C47494BF68030814272
:1016A00006D94648006840F002014448016011E054
:1016B00045F6C050814206D94048006840F001011B
:1016C0003E48016006E03D4801686FF007000140B8
:1016D0003A480160FFF7E6FE394803603948046084
:1016E000394802EA00013948016002F0010040B1C6
:1016F00019463648006800F00200002800D1F8E7DB
:1017000000E0194602F4803040B10B462F480068D3
:1017100000F40030002800D1F8E700E00B4602F0AA
:10172000805068B12948006840F080512748016026
:101730002648006800F00050002800D1F8E7FFE7D5
:1017400002F0806078B12148006840F080611F4855
:10175000016011461A461D48006800F0006000282C
:1017600000D1F8E701E011461A4601F0807070B12F
:101770001648006840F08071144801601146134813
:10178000006800F0007000B9F9E70A46FFE70C486E
:10179000006800F00C01900000F00C00814200D0C5
:1017A000F5E7DDF800E001B0704700BF81000105FA
:1017B00002841D004406010040190100002002407F
:1017C000041002402C100240FFFF0F0000100240E6
:1017D00020496E697469616C697A6174696F6E2001
:1017E0002050574D2000204E64002D2D2D2D2D2DE5
:1017F0002D2D2D2D2D2D2D2D2D2D2D2D2D2D2D0046
:101800002D2D2D2D2D2D2D2D2D2D2D2D2D2D2D2D08
:101810002D2D2D2D2D0020204443204D6F746F72EF
:1018200020342020436C69636B2020002D2D2D2D4A
:101830002D2D2D2D2D2D2D2D2D2D2D2D2D2D2D2DD8
:101840002D00496E697469616C697A6174696F6EA3
:101850002053797374656D002D2D2D2D2D2D2D2D7B
:101860002D2D2D2D2D2D2D2D2D2D2D2D2D002020EF
:1018700020204C65667420446972656374696F6EDC
:1018800020202000203C00002D2D2D2D2D2D2D2D34
:101890002D2D2D2D2D2D2D2D2D2D2D2D2D002020BF
:1018A00020526967687420446972656374696F6E59
:1018B00020202000203E00002D2D2D2D2D2D2D2D02
:1018C0002D2D2D2D2D2D2D2D2D2D2D2D2D00FFFFD1
:1018D0003800000039000000FFFFFFFF000000009B
:1018E00000000000000000000000000000000000F8
:1018F00000000000000000000000000000000000E8
:10190000000000001808000018000000000000009F
:1019100000000000000000000000000000000000C7
:1019200000000000000000000000000000000000B7
:101930000000000000000000300014080900000052
:101940000A000000FFFFFFFF000000000000000091
:101950000000000000000000000000000000000087
:101960000000000000000000000000000000000077
:10197000180800001800000000000000000000002F
:101980000000000000000000000000000000000057
:101990000000000000000000000000000000000047
:1019A000000000000400000000000000FFFFFFFF37
:1019B0000000000000000000000000000000000027
:1019C0000000000000000000000000000000000017
:1019D00000000000000000000000000018080000E7
:1019E00000000000000000000000000000000000F7
:1019F00000000000000000000000000000000000E7
:101A000000000000000000000000000000000000D6
:101A1000001000003500000036000000FFFFFFFF4F
:101A200000000000000000000000000000000000B6
:101A300000000000000000000000000000000000A6
:101A4000000000000000000018080000180000005E
:101A50000000000000000000000000000000000086
:101A60000000000000000000000000000000000076
:101A70000000000000000000000000000800000856
:101A8000811100008D1100009911000075110000F6
:101A9000511100005D11000069110000D10B000020
:101AA000C50B0000DD0B0000F50B0000E90B00008A
:101AB000FFFFFFFFFFFFFFFFFFFFFFFFFFFFFFFF36
:101AC000FFFFFFFFFFFFFFFFFFFFFFFFFFFFFFFF26
:101AD000FFFFFFFFFFFFFFFFFFFFFFFFFFFFFFFF16
:101AE00000000000010203040102030406070809C4
:101AF0000204060800B5DFF814B0DFF814A0DFF820
:101B000014C0FFF705FD00BD704700BF00000020B6
:101B1000FE000020D0170000FFFFFFFFFFFFFFFFC8
:101B2000FFFFFFFFFFFFFFFFFFFFFFFFFFFFFFFFC5
:101B3000FFFFFFFFFFFFFFFFFFFFFFFFFFFFFFFFB5
:101B4000FFFFFFFFFFFFFFFFFFFFFFFFFFFFFFFFA5
:101B5000FFFFFFFFFFFFFFFFFFFFFFFFFFFFFFFF95
:101B6000FFFFFFFFFFFFFFFFFFFFFFFFFFFFFFFF85
:101B7000FFFFFFFF00B5DFF810B0DFF810A0FFF7A0
:101B8000D1FC00BD704700BF000000202C010020E8
:00000001FF
